{
  "_format": "hh-sol-artifact-1",
  "contractName": "UniqueIdentifier",
  "sourceName": "contracts/UniqueIdentifier.sol",
  "abi": [
    {
      "inputs": [
        {
          "internalType": "contract IZKPassportVerifier",
          "name": "_zkPassportVerifier",
          "type": "address"
        },
        {
          "internalType": "contract RLN",
          "name": "_rln",
          "type": "address"
        }
      ],
      "stateMutability": "nonpayable",
      "type": "constructor"
    },
    {
      "anonymous": false,
      "inputs": [
        {
          "indexed": true,
          "internalType": "bytes32",
          "name": "identifier",
          "type": "bytes32"
        }
      ],
      "name": "IdentifierRegistered",
      "type": "event"
    },
    {
      "inputs": [
        {
          "internalType": "bytes32",
          "name": "identifier",
          "type": "bytes32"
        }
      ],
      "name": "checkIdentifier",
      "outputs": [
        {
          "internalType": "bool",
          "name": "",
          "type": "bool"
        }
      ],
      "stateMutability": "view",
      "type": "function"
    },
    {
      "inputs": [
        {
          "internalType": "bytes32[]",
          "name": "identifiersArray",
          "type": "bytes32[]"
        }
      ],
      "name": "checkIdentifiers",
      "outputs": [
        {
          "internalType": "bool[]",
          "name": "",
          "type": "bool[]"
        }
      ],
      "stateMutability": "view",
      "type": "function"
    },
    {
      "inputs": [],
      "name": "owner",
      "outputs": [
        {
          "internalType": "address",
          "name": "",
          "type": "address"
        }
      ],
      "stateMutability": "view",
      "type": "function"
    },
    {
      "inputs": [
        {
          "components": [
            {
              "internalType": "bytes32",
              "name": "vkeyHash",
              "type": "bytes32"
            },
            {
              "internalType": "bytes",
              "name": "proof",
              "type": "bytes"
            },
            {
              "internalType": "bytes32[]",
              "name": "publicInputs",
              "type": "bytes32[]"
            },
            {
              "internalType": "bytes",
              "name": "committedInputs",
              "type": "bytes"
            },
            {
              "internalType": "uint256[]",
              "name": "committedInputCounts",
              "type": "uint256[]"
            },
            {
              "internalType": "uint256",
              "name": "validityPeriodInSeconds",
              "type": "uint256"
            },
            {
              "internalType": "string",
              "name": "domain",
              "type": "string"
            },
            {
              "internalType": "string",
              "name": "scope",
              "type": "string"
            },
            {
              "internalType": "bool",
              "name": "devMode",
              "type": "bool"
            }
          ],
          "internalType": "struct ProofVerificationParams",
          "name": "params",
          "type": "tuple"
        },
        {
          "internalType": "uint256",
          "name": "idCommitment",
          "type": "uint256"
        },
        {
          "internalType": "uint32",
          "name": "rateLimit",
          "type": "uint32"
        }
      ],
      "name": "registerIdentifier",
      "outputs": [],
      "stateMutability": "nonpayable",
      "type": "function"
    },
    {
      "inputs": [],
      "name": "rln",
      "outputs": [
        {
          "internalType": "contract RLN",
          "name": "",
          "type": "address"
        }
      ],
      "stateMutability": "view",
      "type": "function"
    },
    {
      "inputs": [
        {
          "internalType": "contract RLN",
          "name": "_newRLN",
          "type": "address"
        }
      ],
      "name": "setRLNAddress",
      "outputs": [],
      "stateMutability": "nonpayable",
      "type": "function"
    },
    {
      "inputs": [],
      "name": "zkPassportVerifier",
      "outputs": [
        {
          "internalType": "contract IZKPassportVerifier",
          "name": "",
          "type": "address"
        }
      ],
      "stateMutability": "view",
      "type": "function"
    }
  ],
  "bytecode": "0x60806040523480156200001157600080fd5b506040516200170a3803806200170a8339818101604052810190620000379190620001c4565b816000806101000a81548173ffffffffffffffffffffffffffffffffffffffff021916908373ffffffffffffffffffffffffffffffffffffffff16021790555080600160006101000a81548173ffffffffffffffffffffffffffffffffffffffff021916908373ffffffffffffffffffffffffffffffffffffffff16021790555033600260006101000a81548173ffffffffffffffffffffffffffffffffffffffff021916908373ffffffffffffffffffffffffffffffffffffffff16021790555050506200020b565b600080fd5b600073ffffffffffffffffffffffffffffffffffffffff82169050919050565b6000620001338262000106565b9050919050565b6000620001478262000126565b9050919050565b62000159816200013a565b81146200016557600080fd5b50565b60008151905062000179816200014e565b92915050565b60006200018c8262000126565b9050919050565b6200019e816200017f565b8114620001aa57600080fd5b50565b600081519050620001be8162000193565b92915050565b60008060408385031215620001de57620001dd62000101565b5b6000620001ee8582860162000168565b92505060206200020185828601620001ad565b9150509250929050565b6114ef806200021b6000396000f3fe608060405234801561001057600080fd5b506004361061007d5760003560e01c80639814da9c1161005b5780639814da9c146100d8578063c4797ec5146100f6578063d384fad014610114578063debc2698146101445761007d565b80632d0158b0146100825780635a5262a11461009e5780638da5cb5b146100ba575b600080fd5b61009c60048036038101906100979190610752565b610174565b005b6100b860048036038101906100b39190610831565b6103f7565b005b6100c261053a565b6040516100cf919061086d565b60405180910390f35b6100e0610560565b6040516100ed91906108e7565b60405180910390f35b6100fe610586565b60405161010b9190610923565b60405180910390f35b61012e60048036038101906101299190610974565b6105aa565b60405161013b91906109bc565b60405180910390f35b61015e60048036038101906101599190610b30565b6105d4565b60405161016b9190610c37565b60405180910390f35b60008060008054906101000a900473ffffffffffffffffffffffffffffffffffffffff1673ffffffffffffffffffffffffffffffffffffffff1663d7bf616a866040518263ffffffff1660e01b81526004016101d09190611132565b60408051808303816000875af11580156101ee573d6000803e3d6000fd5b505050506040513d601f19601f82011682018060405250810190610212919061117e565b9150915081610256576040517f08c379a000000000000000000000000000000000000000000000000000000000815260040161024d9061121b565b60405180910390fd5b600015156003600083815260200190815260200160002060009054906101000a900460ff161515146102bd576040517f08c379a00000000000000000000000000000000000000000000000000000000081526004016102b490611287565b60405180910390fd5b60016003600083815260200190815260200160002060006101000a81548160ff021916908315150217905550600160009054906101000a900473ffffffffffffffffffffffffffffffffffffffff1673ffffffffffffffffffffffffffffffffffffffff16636bfdc9948585600067ffffffffffffffff811115610344576103436109ed565b5b6040519080825280602002602001820160405280156103725781602001602082028036833780820191505090505b506040518463ffffffff1660e01b815260040161039193929190611374565b600060405180830381600087803b1580156103ab57600080fd5b505af11580156103bf573d6000803e3d6000fd5b50505050807f10214b0003f6bbc25089f9509e5620198cce8f1eb381cf16285117f2fc9e835c60405160405180910390a25050505050565b600260009054906101000a900473ffffffffffffffffffffffffffffffffffffffff1673ffffffffffffffffffffffffffffffffffffffff163373ffffffffffffffffffffffffffffffffffffffff1614610487576040517f08c379a000000000000000000000000000000000000000000000000000000000815260040161047e906113fe565b60405180910390fd5b600073ffffffffffffffffffffffffffffffffffffffff168173ffffffffffffffffffffffffffffffffffffffff16036104f6576040517f08c379a00000000000000000000000000000000000000000000000000000000081526004016104ed9061146a565b60405180910390fd5b80600160006101000a81548173ffffffffffffffffffffffffffffffffffffffff021916908373ffffffffffffffffffffffffffffffffffffffff16021790555050565b600260009054906101000a900473ffffffffffffffffffffffffffffffffffffffff1681565b600160009054906101000a900473ffffffffffffffffffffffffffffffffffffffff1681565b60008054906101000a900473ffffffffffffffffffffffffffffffffffffffff1681565b60006003600083815260200190815260200160002060009054906101000a900460ff169050919050565b60606000825167ffffffffffffffff8111156105f3576105f26109ed565b5b6040519080825280602002602001820160405280156106215781602001602082028036833780820191505090505b50905060005b835181101561069d57600360008583815181106106475761064661148a565b5b6020026020010151815260200190815260200160002060009054906101000a900460ff1682828151811061067e5761067d61148a565b5b6020026020010190151590811515815250508080600101915050610627565b5080915050919050565b6000604051905090565b600080fd5b600080fd5b600080fd5b600061012082840312156106d7576106d66106bb565b5b81905092915050565b6000819050919050565b6106f3816106e0565b81146106fe57600080fd5b50565b600081359050610710816106ea565b92915050565b600063ffffffff82169050919050565b61072f81610716565b811461073a57600080fd5b50565b60008135905061074c81610726565b92915050565b60008060006060848603121561076b5761076a6106b1565b5b600084013567ffffffffffffffff811115610789576107886106b6565b5b610795868287016106c0565b93505060206107a686828701610701565b92505060406107b78682870161073d565b9150509250925092565b600073ffffffffffffffffffffffffffffffffffffffff82169050919050565b60006107ec826107c1565b9050919050565b60006107fe826107e1565b9050919050565b61080e816107f3565b811461081957600080fd5b50565b60008135905061082b81610805565b92915050565b600060208284031215610847576108466106b1565b5b60006108558482850161081c565b91505092915050565b610867816107e1565b82525050565b6000602082019050610882600083018461085e565b92915050565b6000819050919050565b60006108ad6108a86108a3846107c1565b610888565b6107c1565b9050919050565b60006108bf82610892565b9050919050565b60006108d1826108b4565b9050919050565b6108e1816108c6565b82525050565b60006020820190506108fc60008301846108d8565b92915050565b600061090d826108b4565b9050919050565b61091d81610902565b82525050565b60006020820190506109386000830184610914565b92915050565b6000819050919050565b6109518161093e565b811461095c57600080fd5b50565b60008135905061096e81610948565b92915050565b60006020828403121561098a576109896106b1565b5b60006109988482850161095f565b91505092915050565b60008115159050919050565b6109b6816109a1565b82525050565b60006020820190506109d160008301846109ad565b92915050565b600080fd5b6000601f19601f8301169050919050565b7f4e487b7100000000000000000000000000000000000000000000000000000000600052604160045260246000fd5b610a25826109dc565b810181811067ffffffffffffffff82111715610a4457610a436109ed565b5b80604052505050565b6000610a576106a7565b9050610a638282610a1c565b919050565b600067ffffffffffffffff821115610a8357610a826109ed565b5b602082029050602081019050919050565b600080fd5b6000610aac610aa784610a68565b610a4d565b90508083825260208201905060208402830185811115610acf57610ace610a94565b5b835b81811015610af85780610ae4888261095f565b845260208401935050602081019050610ad1565b5050509392505050565b600082601f830112610b1757610b166109d7565b5b8135610b27848260208601610a99565b91505092915050565b600060208284031215610b4657610b456106b1565b5b600082013567ffffffffffffffff811115610b6457610b636106b6565b5b610b7084828501610b02565b91505092915050565b600081519050919050565b600082825260208201905092915050565b6000819050602082019050919050565b610bae816109a1565b82525050565b6000610bc08383610ba5565b60208301905092915050565b6000602082019050919050565b6000610be482610b79565b610bee8185610b84565b9350610bf983610b95565b8060005b83811015610c2a578151610c118882610bb4565b9750610c1c83610bcc565b925050600181019050610bfd565b5085935050505092915050565b60006020820190508181036000830152610c518184610bd9565b905092915050565b6000610c68602084018461095f565b905092915050565b610c798161093e565b82525050565b600080fd5b600080fd5b600080fd5b60008083356001602003843603038112610cab57610caa610c89565b5b83810192508235915060208301925067ffffffffffffffff821115610cd357610cd2610c7f565b5b600182023603831315610ce957610ce8610c84565b5b509250929050565b600082825260208201905092915050565b82818337600083830152505050565b6000610d1d8385610cf1565b9350610d2a838584610d02565b610d33836109dc565b840190509392505050565b60008083356001602003843603038112610d5b57610d5a610c89565b5b83810192508235915060208301925067ffffffffffffffff821115610d8357610d82610c7f565b5b602082023603831315610d9957610d98610c84565b5b509250929050565b600082825260208201905092915050565b600080fd5b82818337505050565b6000610dcc8385610da1565b93507f07ffffffffffffffffffffffffffffffffffffffffffffffffffffffffffffff831115610dff57610dfe610db2565b5b602083029250610e10838584610db7565b82840190509392505050565b60008083356001602003843603038112610e3957610e38610c89565b5b83810192508235915060208301925067ffffffffffffffff821115610e6157610e60610c7f565b5b602082023603831315610e7757610e76610c84565b5b509250929050565b600082825260208201905092915050565b6000610e9c8385610e7f565b93507f07ffffffffffffffffffffffffffffffffffffffffffffffffffffffffffffff831115610ecf57610ece610db2565b5b602083029250610ee0838584610db7565b82840190509392505050565b6000610efb6020840184610701565b905092915050565b610f0c816106e0565b82525050565b60008083356001602003843603038112610f2f57610f2e610c89565b5b83810192508235915060208301925067ffffffffffffffff821115610f5757610f56610c7f565b5b600182023603831315610f6d57610f6c610c84565b5b509250929050565b600082825260208201905092915050565b6000610f928385610f75565b9350610f9f838584610d02565b610fa8836109dc565b840190509392505050565b610fbc816109a1565b8114610fc757600080fd5b50565b600081359050610fd981610fb3565b92915050565b6000610fee6020840184610fca565b905092915050565b6000610120830161100a6000840184610c59565b6110176000860182610c70565b506110256020840184610c8e565b8583036020870152611038838284610d11565b925050506110496040840184610d3e565b858303604087015261105c838284610dc0565b9250505061106d6060840184610c8e565b8583036060870152611080838284610d11565b925050506110916080840184610e1c565b85830360808701526110a4838284610e90565b925050506110b560a0840184610eec565b6110c260a0860182610f03565b506110d060c0840184610f12565b85830360c08701526110e3838284610f86565b925050506110f460e0840184610f12565b85830360e0870152611107838284610f86565b92505050611119610100840184610fdf565b611127610100860182610ba5565b508091505092915050565b6000602082019050818103600083015261114c8184610ff6565b905092915050565b60008151905061116381610fb3565b92915050565b60008151905061117881610948565b92915050565b60008060408385031215611195576111946106b1565b5b60006111a385828601611154565b92505060206111b485828601611169565b9150509250929050565b600082825260208201905092915050565b7f50726f6f6620697320696e76616c696400000000000000000000000000000000600082015250565b60006112056010836111be565b9150611210826111cf565b602082019050919050565b60006020820190508181036000830152611234816111f8565b9050919050565b7f4964656e74696669657220616c72656164792065786973747300000000000000600082015250565b60006112716019836111be565b915061127c8261123b565b602082019050919050565b600060208201905081810360008301526112a081611264565b9050919050565b6112b0816106e0565b82525050565b6112bf81610716565b82525050565b600081519050919050565b600082825260208201905092915050565b6000819050602082019050919050565b60006112fd8383610f03565b60208301905092915050565b6000602082019050919050565b6000611321826112c5565b61132b81856112d0565b9350611336836112e1565b8060005b8381101561136757815161134e88826112f1565b975061135983611309565b92505060018101905061133a565b5085935050505092915050565b600060608201905061138960008301866112a7565b61139660208301856112b6565b81810360408301526113a88184611316565b9050949350505050565b7f43616c6c6572206973206e6f7420746865206f776e6572000000000000000000600082015250565b60006113e86017836111be565b91506113f3826113b2565b602082019050919050565b60006020820190508181036000830152611417816113db565b9050919050565b7f524c4e20616464726573732063616e6e6f74206265207a65726f000000000000600082015250565b6000611454601a836111be565b915061145f8261141e565b602082019050919050565b6000602082019050818103600083015261148381611447565b9050919050565b7f4e487b7100000000000000000000000000000000000000000000000000000000600052603260045260246000fdfea2646970667358221220b03e50114caa4e6606d0b47cec4a0aaed725ec8be451e2e2fd6ad0ddd85c7d4464736f6c63430008180033",
  "linkReferences": {},
  "deployedLinkReferences": {}
}